:100000000C9462000C948A000C948A000C948A0070
:100010000C948A000C948A000C948A000C948A0038
:100020000C948A000C948A000C948A000C948A0028
:100030000C948A000C948A000C948A000C948A0018
:100040000C94530D0C948A000C9447100C948E1051
:100050000C948A000C948A000C948A000C948A00F8
:100060000C948A000C948A000000000024002700F1
:100070002A0000000000250028002B0000000000DE
:1000800023002600290004040404040404040202DA
:100090000202020203030303030301020408102007
:1000A0004080010204081020010204081020000012
:1000B0000007000201000003040600000000000029
:1000C0000000F41111241FBECFEFD8E0DEBFCDBF7A
:1000D00011E0A0E0B1E0ECEBF9E202C005900D9276
:1000E000A833B107D9F713E0A8E3B1E001C01D922E
:1000F000A730B107E1F710E0C4ECD0E004C02297CC
:10010000FE010E94D814C23CD107C9F70E944412D4
:100110000C94DC140C9400008F929F92AF92BF92CB
:10012000DF92EF92FF920F931F93CF93DF938B0198
:10013000015010404C01800E911EAA24BB24EE24D5
:10014000FF242DC0F401D080F0EDDF0EE701E114B3
:10015000F10439F46D2D772767FD7095872F972F60
:1001600014C061E070E080E090E02AE030E040E020
:1001700050E00E946E142197C1F72D2D332727FDE3
:100180003095432F532F0E946E14A60EB71E0150B8
:1001900010400894E11CF11C08948108910817FF95
:1001A000D1CFC501DF91CF911F910F91FF90EF90BB
:1001B000DF90BF90AF909F908F900895DF92EF9265
:1001C000FF920F931F93CF93DF93D82EC0E0D0E020
:1001D0000F2EF0E0EF2EF0E0FF2EF0E00F2FF0E01A
:1001E0001F2FF02D8D2D0E949E0CAA2797FDA09504
:1001F000BA2FBC01CD010E9457139B01AC01C8016D
:10020000B7010E9454127B018C012196C233D105A3
:1002100049F720E030E048E452E40E94BC12DF914C
:10022000CF911F910F91FF90EF90DF90089580E59F
:100230008CBD80E490E0909355018093540110921E
:100240005701109256018AE060E00E94FF0C8091F5
:1002500054018EBD0DB407FEFDCF8EB580915601C1
:100260008EBD0DB407FEFDCF8EB58AE061E00E9421
:10027000FF0C80E18CBD089520E52CBD56E0880F71
:10028000991F5A95E1F7C0969B0146E03595279551
:100290004A95E1F7280F391F3093550120935401F7
:1002A000660F771F660F771F70707093570160930A
:1002B00056018AE060E00E94FF0C809154018EBDDF
:1002C0000DB407FEFDCF8EB5809156018EBD0DB4E5
:1002D00007FEFDCF8EB58AE061E00E94FF0C80E151
:1002E0008CBD0895CF92DF92EF92FF920F931F93F0
:1002F000CF93DF9384E090E00E94DE006093500192
:1003000070935101809352019093530182E090E0E9
:100310000E94DE009B01AC01609344017093450193
:10032000809346019093470180911F019091200195
:10033000181619060CF08FC0CA01B901209150019E
:100340003091510140915201509153010E9453123A
:100350007B018C01C0905002D0905102B6018827D9
:1003600077FD8095982F0E9457139B01AC01C8011F
:10037000B7010E940714181674F5C0911B01D091A3
:100380001C011C161D063CF5C801B7010E94241370
:100390006C197D0977FF03C0709561957F4F6536B5
:1003A000710514F064E670E0CE01861B970BBC016A
:1003B00090931C0180931B0194E0603079071CF03E
:1003C0006FEF73E004C077FF02C060E070E080E090
:1003D00090E00E943C01C0905002D0905102B601C2
:1003E000882777FD8095982F0E9457139B01AC01B9
:1003F000C801B7010E94B81288236CF5C0911B0197
:10040000D0911C0183E0CF3FD8072CF5C801B7017C
:100410000E9424136C197D0977FF03C070956195C4
:100420007F4F6536710514F064E670E06C0F7D1F38
:1004300070931C0160931B0194E0603079071CF0FD
:100440006FEF73E004C077FF02C060E070E080E00F
:1004500090E00E943C0180911F019091200197FF44
:1004600095C060915001709151018091520190911D
:100470005301209144013091450140914601509132
:1004800047010E9453127B018C01C0905002D09012
:100490005102B601882777FD8095982F0E94571347
:1004A0009B01AC01C801B7010E94071418166CF536
:1004B000C0911B01D0911C0183E0CF3FD8072CF5E0
:1004C000C801B7010E9424136C197D0977FF03C08E
:1004D000709561957F4F6536710514F064E670E0A4
:1004E0006C0F7D1F70931C0160931B0194E06030C2
:1004F00079071CF06FEF73E004C077FF02C060E083
:1005000070E080E090E00E943C01C0905002D090EA
:100510005102B601882777FD8095982F0E945713C6
:100520009B01AC01C801B7010E94B812882374F581
:10053000C0911B01D0911C011C161D063CF5C80181
:10054000B7010E9424136C197D0977FF03C07095D1
:1005500061957F4F6536710514F064E670E0CE0159
:10056000861B970BBC0190931C0180931B0194E0A8
:10057000603079071CF06FEF73E004C077FF02C0B2
:1005800060E070E080E090E00E943C01DF91CF915C
:100590001F910F91FF90EF90DF90CF900895CF9330
:1005A000DF9380E00E949E0CAA2797FDA095BA2FAA
:1005B000BC01CD010E94571360933C0170933D0133
:1005C00080933E0190933F0181E00E949E0CAA27F8
:1005D00097FDA095BA2FBC01CD010E9457139B0136
:1005E000AC0160934001709341018093420190936C
:1005F000430180911F0190912001181619060CF0FB
:1006000073C0CA01B90120913C0130913D01409174
:100610003E0150913F010E9453120E942413EB01AE
:1006200080915002909151028C179D075CF52091AA
:100630001B0130911C011216130624F5BE01681B24
:10064000790B77FF03C0709561957F4F6536710513
:1006500014F064E670E0C901861B970BBC0190930F
:100660001C0180931B0194E0603079071CF06FEF50
:1006700073E004C077FF02C060E070E080E090E0CB
:100680000E943C016091500270915102C617D70739
:100690005CF580911B0190911C0123E08F3F920734
:1006A0001CF59E01261B370BB90137FF03C070955F
:1006B00061957F4F6536710514F064E670E0680F50
:1006C000791F70931C0160931B0134E06030730745
:1006D0001CF06FEF73E004C077FF02C060E070E0D1
:1006E00080E090E00E943C0180911F0190912001E8
:1006F00097FF79C060913C0170913D0180913E016E
:1007000090913F012091400130914101409142017F
:10071000509143010E9453120E942413EB018091D7
:100720005002909151028C179D0754F520911B01A6
:1007300030911C0143E02F3F340714F5BE01681BC4
:10074000790B77FF03C0709561957F4F6536710512
:1007500014F064E670E0620F731F70931C016093E5
:100760001B0184E0603078071CF06FEF73E004C079
:1007700077FF02C060E070E080E090E00E943C0102
:100780006091500270915102C617D70764F58091AD
:100790001B0190911C01181619062CF59E01261BB1
:1007A000370BB90137FF03C0709561957F4F6536F0
:1007B000710514F064E670E09C01261B370BB9014B
:1007C00030931C0120931B0134E0603073071CF050
:1007D0006FEF73E004C077FF02C060E070E080E07C
:1007E00090E00E943C01DF91CF91089583E060E0AA
:1007F0000E94FF0C60915A0170915B0180E090E0D3
:100800000E943C0180915A0190915B0190931C01E0
:1008100080931B01019690935B0180935A01209174
:100820005C0130915D012817390724F410925B01B7
:1008300010925A0108951F93182F8DE060E00E94D6
:10084000FF0C8AE090E00E94020E8BE0612F0E9474
:10085000FF0C8DE061E00E94FF0C8AE090E00E94B6
:10086000020E1F9108951F93CF93DF93182F60936B
:10087000550287E060E00E94FF0C8AE090E00E9451
:10088000020E80E00E941B0480E00E941B0480E0B6
:100890000E941B04812F0E941B04C0E0D0E080E076
:1008A0000E941B042196C430D105C9F790E08091C5
:1008B000550287FD91E0892F0E941B04809155020B
:1008C00090E0B6E096958795BA95E1F781700E9421
:1008D0001B048091550290E0A5E096958795AA9516
:1008E000E1F781700E941B048091550290E0F4E0D2
:1008F00096958795FA95E1F781700E941B04809187
:10090000550290E0E3E096958795EA95E1F78170CE
:100910000E941B048091550290E0969587959695CC
:10092000879581700E941B048091550290E09695F6
:10093000879581700E941B048091550281700E94EE
:100940001B0487E061E00E94FF0C8AE090E00E94B7
:10095000020EDF91CF911F91089583E061E00E9424
:10096000FF0C80E090E06FEF73E00E943C018FEF9E
:1009700093E090931C0180931B0180915A01909108
:100980005B0190936101809360016FEF70E0681BE1
:10099000790B80E090E00E94330480915A0190919D
:1009A0005B01019690935B0180935A0120915C0159
:1009B00030915D012817390724F410925B011092E1
:1009C0005A0108950F931F93CF93DF9380E090E037
:1009D0000E94DE0060933C0170933D0180933E01D4
:1009E00090933F0181E090E00E94DE00609340011F
:1009F00070934101809342019093430182E090E023
:100A00000E94DE006093440170934501809346018B
:100A10009093470183E090E00E94DE0060934801DC
:100A20007093490180934A0190934B0184E090E0D8
:100A30000E94DE0060935001709351018093520137
:100A40009093530185E090E00E94DE0060934C019A
:100A500070934D0180934E0190934F0180914F020E
:100A6000882319F082E090E006C080914D0288232F
:100A700039F083E090E0909322018093210119C026
:100A800080914E02882319F085E090E0F4CF8091A8
:100A90002301882319F081E090E0EDCF8091580187
:100AA000882319F084E090E0E6CF109222011092A2
:100AB000210100911F0110912001C0915002D0919D
:100AC000510288EE92E060E071E00E94920F609126
:100AD0001B0170911C0184E0603078071CF06FEFFF
:100AE00073E004C077FF02C060E070E088EE92E03F
:100AF0004AE050E00E94600F88EE92E064E071E00E
:100B00000E94920F40913C0150913D0160913E0145
:100B100070913F0188EE92E022E030E00E943010B8
:100B200088EE92E064E071E00E94920F40914001F3
:100B300050914101609142017091430188EE92E031
:100B400022E030E00E94301088EE92E064E071E034
:100B50000E94920F609160017091610188EE92E0B5
:100B60004AE050E00E94600F88EE92E064E071E09D
:100B70000E94920FC09FB001C19F700DD09F700D59
:100B8000112488EE92E04AE050E00E94600F88EE67
:100B900092E064E071E00E94920F609121017091F7
:100BA000220188EE92E04AE050E00E94600F88EE59
:100BB00092E064E071E00E94920F88EE92E0609112
:100BC00047020E94710E88EE92E0609148020E94F6
:100BD000710E88EE92E0609149020E94710E88EEDB
:100BE00092E060914A020E94710E88EE92E060915C
:100BF0004B020E94710E88EE92E064E071E00E9468
:100C0000920F4091440150914501609146017091CD
:100C1000470188EE92E022E030E00E94301088EE3A
:100C200092E064E071E00E94920F4091480150917F
:100C3000490160914A0170914B0188EE92E022E0F7
:100C400030E00E94301088EE92E064E071E00E9493
:100C5000920F40914C0150914D0160914E01709165
:100C60004F0188EE92E022E030E00E94301088EEE2
:100C700092E064E071E00E94920F40915001509127
:100C80005101609152017091530188EE92E022E08F
:100C900030E00E94301088EE92E064E071E00E9443
:100CA000920F86E592E060E270E00E94880C682F67
:100CB00088EE92E070E04AE050E00E94600F88EE1B
:100CC00092E066E071E00E943310DF91CF911F91B6
:100CD0000F9108958F929F92AF92BF92CF92DF9221
:100CE000EF92FF920F931F93CF93DF9380E090E0FA
:100CF0000E94DE007B018C0160933C0170933D01FA
:100D000080933E0190933F0183E090E00E94DE00DB
:100D10009B01AC01C801B7010E9453125B016C0139
:100D200081E090E00E94DE006093400170934101F9
:100D30008093420190934301C0915002D09151029F
:100D4000BE01882777FD8095982F0E9457137B015D
:100D50008C01C601B501A80197010E94071418165D
:100D6000E4F480901B0190901C0118141904ACF459
:100D7000C601B5010E9424136C1B7D0B77FF03C0D5
:100D8000709561957F4F6536710514F064E670E0EB
:100D9000C401861B970BBC0122C0C601B501A80186
:100DA00097010E94B81288236CF500911B011091E5
:100DB0001C0183E00F3F18072CF5C601B5010E9406
:100DC00024136C1B7D0B77FF03C0709561957F4FDB
:100DD0006536710514F064E670E0600F711F709362
:100DE0001C0160931B0194E0603079071CF06FEFE9
:100DF00073E004C077FF02C060E070E080E090E044
:100E00000E943C0120911B0130911C0183E02F3F87
:100E100038070CF448C08091600190916101181668
:100E200019060CF040C088EE93E090931C0180936B
:100E30001B0180E090E068EE73E00E943C01C60177
:100E4000B5010E9424138091500290915102681BB9
:100E5000790B77FF03C0709561957F4F6531710500
:100E60001CF42AE030E002C02EE130E08091600105
:100E700090916101821B930B8F3F910519F014F043
:100E80008FEF90E097FF02C080E090E090936101C7
:100E9000809360016FEF70E0681B790B80E090E059
:100EA0000E94330455C0121613060CF451C08091F1
:100EB000600190916101181619060CF049C087E194
:100EC00090E090931C0180931B0180E090E067E12B
:100ED00070E00E943C01C601B5010E94241380917C
:100EE000500290915102681B790B77FF03C07095F7
:100EF00061957F4F653171051CF42AE030E002C036
:100F00002EE130E08091600190916101821B930B92
:100F10008F3F910519F014F08FEF90E097FF02C01A
:100F200080E090E090936101809360016FEF70E04A
:100F3000681B790B80E090E00E94330460916401AB
:100F400070916501882777FD8095982F0E94A90DE3
:100F50006091400170914101809142019091430163
:100F600020913C0130913D0140913E0150913F0163
:100F70000E9453127B018C0120E030E040E050E001
:100F80000E94071418161CF4C801B70103C0C80159
:100F9000B70190580E9424136436710554F580916E
:100FA0006001909161018F3F91051CF50196181623
:100FB00019061CF081E090E006C08F3F910519F002
:100FC00014F08FEF90E090936101809360016FEFD8
:100FD00070E0681B790B80E090E00E943304609120
:100FE000640170916501882777FD8095982F0E9494
:100FF000A90DDF91CF911F910F91FF90EF90DF909E
:10100000CF90BF90AF909F908F900895EF92FF92F6
:101010000F931F93CF93DF937C01C0E0D0E088EE65
:1010200092E00E944F11892BD1F388EE92E06AE0A2
:1010300071E00E94331087010C0F1D1F08C088EE5D
:1010400092E00E948011F80181938F01219688EE31
:1010500092E00E944F11892B91F7C530D105FCF227
:10106000DF91CF911F910F91FF90EF900895EF9234
:10107000FF920F931F93CF93DF9380E891E00E943C
:10108000060880918001882309F081C30E949B0D8E
:10109000209138013091390140913A0150913B0142
:1010A000621B730B840B950B209117013091180173
:1010B0004091190150911A0126173707480759071F
:1010C00008F0C3C293C29D32C1F09237C1F0973687
:1010D000B1F09037A1F0903591F0923581F09336D0
:1010E00071F0943661F0963551F0983409F055C29C
:1010F00006C081E080934C0202C010924C02109214
:101100004F02923721F010924D0210924E0210922F
:101110005801109259011092230181E090E09093C0
:10112000200180931F0120E030E02F5F3F4FF90145
:10113000ED51FE4FD901A058BE4F8C9180832236CD
:10114000310599F784EE91E064E070E00E948C0034
:10115000EC0180918001803759F110926701109263
:1011600066018B3229F5D0931C01C0931B0124E04A
:10117000C030D2071CF06FEF73E006C0D7FF03C08A
:1011800060E070E001C0BE0180E090E00E943C01A0
:1011900083E061E00E94FF0C81E090E090932501E4
:1011A000809324018AE090E090935302809352024E
:1011B000809180018436C9F4D0931C01C0931B0137
:1011C00081E090E0BE010E943C0183E060E00E946B
:1011D000FF0C81E090E090932501809324018AE048
:1011E00090E09093530280935202809180018D325F
:1011F00011F08F3639F481E08093230183E060E0C1
:101200000E94FF0C80918001803551F481E0809331
:10121000580110925B0110925A018FEF93E00BC0BE
:10122000823571F481E08093590110925B01109234
:101230005A018FEF90E090935D0180935C010EC0A6
:10124000823761F4D0936101C09360016FEF70E069
:101250006C1B7D0B80E090E00E9433048091800144
:101260008635A1F488EE92E06FE071E00E943310C1
:1012700088EE92E0BE014AE050E00E94730F86E5DE
:1012800092E060E270E04C2F0E948F0C8091800110
:10129000873609F084C00E94170181E080934D02D7
:1012A00080E090E00E94DE000E9424139B01709376
:1012B0001C0160931B0144E0603074071CF02FEFA9
:1012C00033E004C077FF02C020E030E080E090E02F
:1012D000B9010E943C0187E0C13DD8072CF0C05DF8
:1012E000D7408FEF9FEF06C027E0C03DD20731F017
:1012F00081E090E09093200180931F01D0935102F0
:10130000C093500280E090E00E94DE007B018C01DF
:1013100080911F0190912001C89FB001C99F700D5D
:10132000D89F700D1124882777FD8095982F0E94F3
:1013300057139B01AC01C801B7010E9454120E94CF
:10134000241370931C0160931B016050744034F0AF
:101350008FEF93E090931C0180931B0180911B0100
:1013600090911C0197FF04C010921C0110921B0168
:1013700060911B0170911C0144E0603074071CF007
:101380006FEF73E004C077FF02C060E070E080E0C0
:1013900090E00E943C0183E061E00E94FF0C80919C
:1013A0008001883409F084C00E94170181E0809395
:1013B0004E0280E090E00E94DE000E9424139B0118
:1013C00070931C0160931B0144E0603074071CF0B3
:1013D0002FEF33E004C077FF02C020E030E080E070
:1013E00090E0B9010E943C0187E0C13DD8072CF094
:1013F000C05DD7408FEF9FEF06C027E0C03DD2070A
:1014000031F081E090E09093200180931F01D09310
:101410005102C093500280E090E00E94DE007B0108
:101420008C0180911F0190912001C89FB001C99F3C
:10143000700DD89F700D1124882777FD8095982F07
:101440000E9457139B01AC01C801B7010E945412BE
:101450000E94241370931C0160931B016050744020
:1014600034F08FEF93E090931C0180931B018091E7
:101470001B0190911C0197FF04C010921C01109257
:101480001B0160911B0170911C0144E060307407E6
:101490001CF06FEF73E004C077FF02C060E070E003
:1014A00080E090E00E943C0183E061E00E94FF0C3C
:1014B00080918001803709F040C087E0C13DD807A6
:1014C0002CF0C05DD7408FEF9FEF06C027E0C03DF6
:1014D000D20731F081E090E09093200180931F01CA
:1014E0008091660190916701892B11F40E94170188
:1014F00081E080934F0281E090E0909367018093B8
:10150000660180911F01909120019C01C29FC00142
:10151000C39F900DD29F900D112490935102809300
:10152000500283E061E00E94FF0C609150027091D4
:10153000510280E090E00E943C018091800183365E
:1015400009F048C037E0C13DD3072CF0C05DD7405B
:101550008FEF9FEF06C047E0C03DD40731F081E038
:1015600090E09093200180931F0181E080934F02CF
:1015700080911F01909120019C01C29FC001C39FD7
:10158000900DD29F900D11249093510280935002A0
:101590000E94170183E061E016C09032B9F485E043
:1015A00061E00E94FF0C86E060E00E94FF0C64E6B0
:1015B00070E080E090E00E94A90D85E060E00E946C
:1015C000FF0C86E060E00E94FF0C04C0933711F42A
:1015D0000E94E204809180018823B9F1E0E8F1E003
:1015E00001C0119280818823E1F72FC081E08093B0
:1015F000230110924D0210924F0210924E0283E08E
:1016000060E00E94FF0CC0E0D0E085E061E00E9455
:10161000FF0C86E060E00E94FF0C64E670E080E072
:1016200090E00E94A90D85E060E00E94FF0C86E03A
:1016300060E00E94FF0C64E670E080E090E00E94B1
:10164000A90D2196C330D10501F780914F0288235F
:1016500011F00E946A0680914D02882311F00E94C9
:10166000CF0280914E02882311F00E947201809176
:101670005801882311F00E94F603809159018823B4
:1016800011F00E94AD04609124017091250188271A
:1016900077FD8095982F0E94A90DC0916201D0918D
:1016A00063012196D0936301C093620160917E0132
:1016B00070917F01882777FD8095982F0E9457139E
:1016C00020913C0130913D0140913E0150913F01FC
:1016D0000E9454120E9424137B018C0170937F019D
:1016E00060937E0160917C0170917D01882777FD78
:1016F0008095982F0E94571320914001309141010D
:1017000040914201509143010E9454120E942413BF
:101710009B01AC0170937D0160937C01809152022A
:10172000909153028C179D070CF053C0C901BE0164
:101730000E948D14882777FD8095982F0E9457135B
:101740006093400170934101809342019093430163
:10175000C701BE010E948D14882777FD8095982FC0
:101760000E94571360933C0170933D0180933E01AA
:1017700090933F01109263011092620110927F01D9
:1017800010927E0110927D0110927C0122C00E9475
:101790009B0D609338017093390180933A019093C7
:1017A0003B01909180019093470280918101809349
:1017B0004802809182018093490280918301809345
:1017C0004A028091840180934B029B3209F07BCCCA
:1017D00090CCDF91CF911F910F91FF90EF900895E2
:1017E0000F931F9388EE92E040E051EE60E070E0CE
:1017F0000E94C91080E00E949B0C8BE061E00E9477
:10180000C00C83E061E00E94C00C8CE060E00E94AC
:10181000C00C8DE061E00E94C00C8AE061E00E9493
:10182000C00C85E061E00E94C00C86E061E00E948F
:10183000C00C87E061E00E94C00C80911D0161E056
:101840000E94C00C8AE061E00E94FF0C87E061E02A
:101850000E94FF0C80911D0160E00E94FF0C68EE69
:1018600073E080E090E00E94A90D80911D0161E08D
:101870000E94FF0C10E11CBD8DB58EB58093540203
:101880006AE070E080E090E00E94A90D80E980931A
:101890005E0110925F01109261011092600180E080
:1018A00090E06FEF70E00E94330410935E010FEF41
:1018B00010E08091600190916101B801681B790B83
:1018C00080E090E00E94330480E480935E011092F7
:1018D0005F01109361010093600180E090E060E09F
:1018E00070E00E943304EAE6F1E01192119281E087
:1018F000EE37F807D1F70E949B0D60933801709383
:10190000390180933A0190933B011F910F91089503
:10191000F999FECF72BD61BDF89A80B50895F99925
:10192000FECF1FBA72BD61BD40BD0FB6F894FA9AE2
:10193000F99A0FBE0895809326010895982F8E304E
:1019400008F09E509770809126018295880F880F2D
:10195000807C892B80937C0080917A0080648093C6
:101960007A0080917A0086FDFCCF2091780040912A
:101970007900942F80E030E0282B392BC90108959D
:10198000CF93DF93482F50E0CA0186569F4FFC014A
:1019900034914A575F4FFA018491882369F190E0AE
:1019A000880F991FFC01E859FF4FA591B491FC01E4
:1019B000EE58FF4FC591D491662351F42FB7F89498
:1019C0008C91932F909589238C93888189230BC0C8
:1019D000623061F42FB7F8948C91932F90958923FE
:1019E0008C938881832B88832FBF06C09FB7F89480
:1019F0008C91832B8C939FBFDF91CF910895482FBB
:101A000050E0CA0182559F4FFC012491CA018656BD
:101A10009F4FFC0194914A575F4FFA013491332351
:101A200009F440C0222351F1233071F0243028F40E
:101A30002130A1F0223011F514C02630B1F027304A
:101A4000C1F02430D9F404C0809180008F7703C0A6
:101A5000809180008F7D8093800010C084B58F7747
:101A600002C084B58F7D84BD09C08091B0008F779E
:101A700003C08091B0008F7D8093B000E32FF0E031
:101A8000EE0FFF1FEE58FF4FA591B4912FB7F894BA
:101A9000662321F48C919095892302C08C91892B27
:101AA0008C932FBF08951F920F920FB60F9211249F
:101AB0002F933F938F939F93AF93BF9380915B023C
:101AC00090915C02A0915D02B0915E0230915F0244
:101AD0000196A11DB11D232F2D5F2D3720F02D570D
:101AE0000196A11DB11D20935F0280935B0290932C
:101AF0005C02A0935D02B0935E02809157029091C8
:101B00005802A0915902B0915A020196A11DB11D2F
:101B10008093570290935802A0935902B0935A02AF
:101B2000BF91AF919F918F913F912F910F900FBED9
:101B30000F901F9018958FB7F89420915B02309109
:101B40005C0240915D0250915E028FBFB901CA01F3
:101B500008959B01AC017FB7F89480915702909152
:101B60005802A0915902B0915A0266B5A89B05C0CF
:101B70006F3F19F00196A11DB11D7FBFBA2FA92F8C
:101B8000982F8827860F911DA11DB11D62E0880F37
:101B9000991FAA1FBB1F6A95D1F7BC012DC0FFB7C3
:101BA000F8948091570290915802A0915902B091F7
:101BB0005A02E6B5A89B05C0EF3F19F00196A11D9A
:101BC000B11DFFBFBA2FA92F982F88278E0F911D07
:101BD000A11DB11DE2E0880F991FAA1FBB1FEA9546
:101BE000D1F7861B970B885E9340C8F22150304096
:101BF0004040504068517C4F211531054105510549
:101C000071F60895019739F0880F991F880F991F71
:101C100002970197F1F70895789484B5826084BDA6
:101C200084B5816084BD85B5826085BD85B58160E0
:101C300085BDEEE6F0E0808181608083E1E8F0E040
:101C40001082808182608083808181608083E0E86F
:101C5000F0E0808181608083E1EBF0E0808184604E
:101C60008083E0EBF0E0808181608083EAE7F0E050
:101C700080818460808380818260808380818160B4
:101C800080838081806880831092C1000895CF9204
:101C9000DF92EF92FF920F931F93CF93DF937C011C
:101CA0006B018A01C0E0D0E00FC0D6016D916D01DB
:101CB000D701ED91FC910190F081E02DC7010995CC
:101CC000C80FD91F015010400115110571F7CE0141
:101CD000DF91CF911F910F91FF90EF90DF90CF9008
:101CE0000895DC01ED91FC910190F081E02D0995C2
:101CF0000895EF92FF920F931F938C01DC01ED91F9
:101D0000FC910190F081E02D6DE009957C01D801F6
:101D1000ED91FC910190F081E02DC8016AE00995F8
:101D20009C012E0D3F1DC9011F910F91FF90EF9057
:101D30000895CF93DF93DB010D900020E9F7119711
:101D4000A61BB70BEC01E881F9810280F381E02D3D
:101D5000AD010995DF91CF9108954F925F927F92E7
:101D60008F929F92AF92BF92CF92DF92EF92FF92AB
:101D70000F931F93DF93CF93CDB7DEB7A1970FB625
:101D8000F894DEBF0FBECDBF2C01742ECB012230E4
:101D900008F42AE019A231E2C32ED12CCC0EDD1EAC
:101DA000822E9924AA24BB24672D752FA5019401A6
:101DB0000E94A01479018A01C801B701A50194010C
:101DC0000E946E14472D461B0894C108D1084A3062
:101DD00014F4405D01C0495CF6014083E114F10454
:101DE0000105110521F07E2C5F2DC801DDCFC20158
:101DF000B6010E94990EA1960FB6F894DEBF0FBEF1
:101E0000CDBFCF91DF911F910F91FF90EF90DF90A9
:101E1000CF90BF90AF909F908F907F905F904F90AA
:101E20000895DC012115310541F4ED91FC910190FB
:101E3000F081E02D642F099508950E94AD0E08955C
:101E4000CF92DF92EF92FF920F931F93CF93DF9386
:101E5000EC016A017B012115310541F4E881F9812A
:101E60000190F081E02D642F09951FC02A303105C3
:101E7000D1F477FF17C0E881F9810190F081E02D5E
:101E80006DE209958C0144275527BA014C195D096B
:101E90006E097F09CE012AE00E94AD0E9801280F3D
:101EA000391F04C02AE00E94AD0E9C01C901DF91D8
:101EB000CF911F910F91FF90EF90DF90CF900895F9
:101EC000EF92FF920F931F937B019A010027F7FC7B
:101ED0000095102FB801A7010E94200F1F910F91AC
:101EE000FF90EF900895CF92DF92EF92FF920F93C1
:101EF0001F936C017B019A010027F7FC0095102FBE
:101F0000B801A7010E94200F8C01C6010E94790E22
:101F1000080F191FC8011F910F91FF90EF90DF90DC
:101F2000CF9008950E94990E08957F928F929F926C
:101F3000AF92BF92CF92DF92EF92FF920F931F93D7
:101F4000CF93DF934C017A018B01722ECB01BA0142
:101F500020E030E040E050E00E94B81287FD03C06E
:101F6000C0E0D0E00EC0D401ED91FC910190F08171
:101F7000E02DC4016DE20995EC0117FB109517F9EE
:101F8000109520E030E040E05FE3AA240BC0CA01D6
:101F9000B90120E030E040E251E40E94BC129B0114
:101FA000AC01A394A71498F3C801B7010E9454127E
:101FB0005B016C010E9429137B018C01C401B801F3
:101FC000A7012AE030E00E94110FC80FD91F772027
:101FD00039F0C40165E171E00E94990EC80FD91F64
:101FE000C801B7010E9455139B01AC01C601B501A0
:101FF0000E94531224C020E030E040E251E40E94ED
:102000000B147B018C010E9424135B016C01CC2416
:10201000B7FCC094DC2CC401B601A5012AE030E075
:102020000E94200FC80FD91FC601B5010E94571387
:102030009B01AC01C801B7010E9453127A9477202A
:10204000D1F6CE01DF91CF911F910F91FF90EF90CC
:10205000DF90CF90BF90AF909F908F907F9008952A
:102060000E94950F0895EF92FF920F931F937C01AA
:102070000E94990E8C01C7010E94790E080F191F4A
:10208000C8011F910F91FF90EF90089508951F923E
:102090000F920FB60F9211242F933F934F938F936C
:1020A0009F93EF93FF934091C6002091A00230913F
:1020B000A1022F5F3F4F2F7330708091A202909149
:1020C000A3022817390759F0E091A002F091A1026C
:1020D000E05AFD4F40833093A1022093A002FF916C
:1020E000EF919F918F914F913F912F910F900FBE44
:1020F0000F901F901895E091F402F091F502E05CCA
:10210000FF4F8191919120813181821B930B8F73BD
:102110009070892B11F00E94461008951F920F9223
:102120000FB60F9211242F933F938F939F93EF93AA
:10213000FF932091E4023091E5028091E6029091B4
:10214000E7022817390731F48091C1008F7D809311
:10215000C10014C0E091E602F091E702EC55FD4F9A
:1021600020818091E6029091E70201968F73907032
:102170009093E7028093E6022093C600FF91EF91CF
:102180009F918F913F912F910F900FBE0F901F90B5
:102190001895AF92BF92DF92EF92FF920F931F9329
:1021A000CF93DF93EC017A018B01DD24403081EE87
:1021B000580780E0680780E0780711F0DD24D394A9
:1021C00091E0A92EB12CEC89FD89DD2069F0C501D3
:1021D0000E8C02C0880F991F0A94E2F7808360E09A
:1021E00079E08DE390E005C0108260E874E88EE14C
:1021F00090E0A80197010E94A01421503040404077
:102200005040569547953795279580E120303807FF
:1022100020F0DD2011F0DD24D6CFE889F989308364
:10222000EA89FB892083EE89FF89408121E030E043
:10223000C9010A8C02C0880F991F0A94E2F7482B43
:102240004083EE89FF894081C9010B8C02C0880F51
:10225000991F0A94E2F7482B4083EE89FF89408159
:10226000C9010C8C02C0880F991F0A94E2F7482B11
:102270004083EE89FF8980810D8C02C0220F331FBD
:102280000A94E2F7209528232083DF91CF911F91B4
:102290000F91FF90EF90DF90BF90AF900895DC0119
:1022A0001C96ED91FC911D97E05CFF4F21913191BF
:1022B00080819181281B390B2F733070C9010895DB
:1022C000DC011C96ED91FC911D97E05CFF4F208195
:1022D0003181E054F040DF01AE5BBF4F8D919C91A6
:1022E00011972817390719F42FEF3FEF07C08D9189
:1022F0009C91E80FF91F8081282F30E0C9010895D3
:10230000DC011C96ED91FC911D97E05CFF4F208154
:102310003181E054F040DF01AE5BBF4F8D919C9165
:1023200011972817390719F42FEF3FEF10C08D913F
:102330009C911197E80FF91F20818D919C91119725
:1023400001968F73907011969C938E9330E0C90123
:102350000895FC0186859785DC01A05CBF4FFC01D8
:10236000EE5BFF4F2D913C91119780819181281751
:102370003907C1F70895CF93DF93EC01EE85FF8510
:10238000E05CFF4F20813181E054F0402F5F3F4FF0
:102390002F733070DF01AE5BBF4F8D919C91119711
:1023A00028173907D1F3E05CFF4F80819181E05419
:1023B000F040E80FF91F6083EE85FF85E05CFF4F7A
:1023C00031832083EE89FF89208181E090E00D8CAC
:1023D00002C0880F991F0A94E2F7282B208381E01E
:1023E00090E0DF91CF9108951092EB021092EA02F3
:1023F00088EE93E0A0E0B0E08093EC029093ED02D1
:10240000A093EE02B093EF028BE291E09093E90289
:102410008093E80280E692E09093F5028093F402C4
:1024200084EA92E09093F7028093F60285EC90E0C4
:102430009093F9028093F80284EC90E09093FB0271
:102440008093FA0280EC90E09093FD028093FC026E
:1024500081EC90E09093FF028093FE0286EC90E086
:10246000909301038093000384E08093020383E050
:102470008093030387E08093040385E08093050342
:1024800081E0809306030895CF93DF930E940C0EA2
:102490000E94F00BCBE7D0E10E9437082097E1F3D0
:1024A0000E947B10F9CF5058BB27AA270ED075C1C8
:1024B00066D130F06BD120F031F49F3F11F41EF45F
:1024C0005BC10EF4E095E7FB51C1E92F77D180F3B2
:1024D000BA17620773078407950718F071F49EF521
:1024E0008FC10EF4E0950B2EBA2FA02D0B01B90170
:1024F00090010C01CA01A0011124FF27591B99F07A
:10250000593F50F4503E68F11A16F040A22F232F85
:10251000342F4427585FF3CF469537952795A795D5
:10252000F0405395C9F77EF41F16BA0B620B730B7C
:10253000840BBAF09150A1F0FF0FBB1F661F771FED
:10254000881FC2F70EC0BA0F621F731F841F48F4A2
:10255000879577956795B795F7959E3F08F0B3CF28
:102560009395880F08F09927EE0F97958795089512
:10257000D9D008F481E008950CD00FC107D140F004
:10258000FED030F021F45F3F19F0F0C0511139C195
:10259000F3C014D198F39923C9F35523B1F3951BD4
:1025A000550BBB27AA2762177307840738F09F5F74
:1025B0005F4F220F331F441FAA1FA9F333D00E2EE3
:1025C0003AF0E0E830D091505040E695001CCAF750
:1025D00029D0FE2F27D0660F771F881FBB1F261715
:1025E00037074807AB07B0E809F0BB0B802DBF01E8
:1025F000FF2793585F4F2AF09E3F510568F0B6C001
:1026000000C15F3FECF3983EDCF3869577956795C4
:10261000B795F7959F5FC9F7880F911D9695879598
:1026200097F90895E1E0660F771F881FBB1F6217B7
:1026300073078407BA0720F0621B730B840BBA0B75
:10264000EE1F88F7E095089504D06894B111D9C0C1
:102650000895BCD088F09F5790F0B92F9927B751B3
:10266000A0F0D1F0660F771F881F991F1AF0BA9556
:10267000C9F712C0B13081F0C3D0B1E00895C0C035
:10268000672F782F8827B85F39F0B93FCCF386954C
:1026900077956795B395D9F73EF4909580957095A9
:1026A00061957F4F8F4F9F4F0895E89409C097FB26
:1026B0003EF490958095709561957F4F8F4F9F4F19
:1026C0009923A9F0F92F96E9BB279395F69587955D
:1026D00077956795B795F111F8CFFAF4BB0F11F420
:1026E00060FF1BC06F5F7F4F8F4F9F4F16C08823C7
:1026F00011F096E911C0772321F09EE8872F762FFD
:1027000005C0662371F096E8862F70E060E02AF03D
:102710009A95660F771F881FDAF7880F9695879529
:1027200097F90895990F0008550FAA0BE0E8FEEFFE
:1027300016161706E807F907C0F012161306E40785
:10274000F50798F0621B730B840B950B39F40A267E
:1027500061F0232B242B252B21F408950A2609F45C
:10276000A140A6958FEF811D811D089597F99F6760
:1027700080E870E060E008959FEF80EC0895002409
:102780000A941616170618060906089500240A94D6
:1027900012161306140605060895092E0394000C5C
:1027A00011F4882352F0BB0F40F4BF2B11F460FFEB
:1027B00004C06F5F7F4F8F4F9F4F089557FD905814
:1027C000440F551F59F05F3F71F04795880F97FBF5
:1027D000991F61F09F3F79F08795089512161306AF
:1027E0001406551FF2CF4695F1DF08C016161706DE
:1027F0001806991FF1CF8695710561050894089513
:10280000E894BB2766277727CB0197F908958ADFDD
:1028100008F48FEF08950BD0C0CFB1DF28F0B6DFFA
:1028200018F0952309F0A2CFA7CF1124EACFC6DF75
:10283000A0F3959FD1F3950F50E0551F629FF001D3
:10284000729FBB27F00DB11D639FAA27F00DB11D2C
:10285000AA1F649F6627B00DA11D661F829F2227B5
:10286000B00DA11D621F739FB00DA11D621F839F3C
:10287000A00D611D221F749F3327A00D611D231F12
:10288000849F600D211D822F762F6A2F11249F5760
:1028900050408AF0E1F088234AF0EE0FFF1FBB1F83
:1028A000661F771F881F91505040A9F79E3F510522
:1028B00070F05CCFA6CF5F3FECF3983EDCF38695DB
:1028C00077956795B795F795E7959F5FC1F7FE2BCD
:1028D000880F911D9695879597F90895629FD0016D
:1028E000739FF001829FE00DF11D649FE00DF11DCB
:1028F000929FF00D839FF00D749FF00D659FF00D7A
:102900009927729FB00DE11DF91F639FB00DE11D66
:10291000F91FBD01CF011124089597FB092E072649
:102920000AD077FD04D02ED006D000201AF470957E
:1029300061957F4F0895F6F7909581959F4F089583
:10294000A1E21A2EAA1BBB1BFD010DC0AA1FBB1FB3
:10295000EE1FFF1FA217B307E407F50720F0A21B25
:10296000B30BE40BF50B661F771F881F991F1A9492
:1029700069F760957095809590959B01AC01BD01BC
:10298000CF010895AA1BBB1B51E107C0AA1FBB1FA3
:10299000A617B70710F0A61BB70B881F991F5A95EB
:1029A000A9F780959095BC01CD010895EE0FFF1F0A
:0C29B0000590F491E02D0994F894FFCFFD
:1029BC00474F2C002C002C53540020202020006664
:1029CC0075646765002E0030750000FF030200017E
:1029DC000001000101000100000000BB11470E4F77
:0829EC001180116011A9110016
:00000001FF
